:020000040800F2
:10000000000008244546000895460008954600086B
:100010009546000895460008954600080000000037
:1000200000000000000000000000000095460008ED
:10003000954600080000000095460008DD450008D0
:100040009546000895460008954600089546000824
:100050009546000895460008954600089546000814
:100060009546000895460008954600089546000804
:1000700095460008954600089546000895460008F4
:1000800095460008954600089546000895460008E4
:1000900095460008954600089546000895460008D4
:1000A00095460008954600089546000895460008C4
:1000B00095460008954600089546000895460008B4
:1000C00095460008954600089546000895460008A4
:1000D0009546000895460008954600089546000894
:1000E0009546000895460008000000009546000867
:1000F0009546000895460008954600089546000874
:100100009546000895460008954600089546000863
:100110009546000895460008954600089546000853
:100120009546000895460008954600089546000843
:100130009546000895460008954600089546000833
:1001400000000000000000000000000000000000AF
:100150009546000895460008954600089546000813
:100160009546000895460008954600089546000803
:1001700095460008954600089546000800000000D6
:1001800095460008954600089546000895460008E3
:1001900095460008954600089546000895460008D3
:1001A00095460008954600089546000895460008C3
:1001B00095460008954600089546000895460008B3
:1001C00095460008954600089546000895460008A3
:1001D0009546000895460008954600089546000893
:1001E0009546000895460008954600089546000883
:1001F0009546000895460008954600089546000873
:100200009546000895460008954600089546000862
:100210009546000895460008954600089546000852
:100220009546000895460008954600080000000025
:100230009546000895460008000000009546000815
:100240009546000895460008954600089546000822
:100250009546000895460008954600089546000812
:100260009546000895460008954600089546000802
:1002700095460008954600089546000800000000D5
:1002800095460008000000009546000800000000A8
:08029000000000009546000883
:1002A00010B5054C237833B9044B13B10448AFF3B0
:1002B00000800123237010BD8C000024000000008A
:1002C0006855000808B5034B1BB103490348AFF359
:1002D000008008BD00000000900000246855000860
:1002E00001F0FF01102A2BDB10F0070F08D010F8E7
:1002F000013B013A8B422DD010F0070F42B3F6D1EB
:10030000F0B441EA012141EA014122F007047FF003
:1003100000070023F0E80256083C85EA010586EA5A
:10032000010685FA47F5A3FA87F586FA47F6A5FA96
:1003300087F68EB9EED1F0BC01F0FF0102F00702A2
:1003400032B110F8013B013A83EA010313B1F8D14D
:100350000020704701387047002D06BF354603382E
:10036000073815F0010F07D1013015F4807F02BF67
:10037000013015F4C03F0130F0BC0138704700BFB8
:1003800030B570B1CC6864B18A6852B10B6943B1C1
:100390000D6849688560C1608361C0E9042400205C
:1003A00030BD4FF0FF30FBE773B5002346680446CD
:1003B000019366B1A36998470546A3699847401B16
:1003C000B0F5FA6FF9D901230025636027E083684F
:1003D00003B19847202300252360636901AA1221F5
:1003E0003046984700281DDB019B03F01F03B342F2
:1003F0001AD10025266020681F2833D87DB92369CB
:100400004FF400422946984700282EDB636901AA71
:1004100029462068984700280ADA6FF00405284624
:1004200002B070BD6FF004050136202ED5D1E2E791
:10043000A36998470646019B1B0402D4002DB9D03E
:10044000EDE7A3699847801BB0F5FA7F07D8636989
:1004500001AA0021206898470028ECDADDE76FF058
:100460000105E8E76FF00205D9E76FF00305D6E76D
:1004700070B50E4E05464FF47A730D4A3078B3FBD3
:10048000F0F31068B0FBF3F000F096F8044650B9B2
:100490000F2D08D8024629464FF0FF3000F05AF8D9
:1004A0002046756070BD0120FCE700BF00000024FD
:1004B0002000002410B5032000F03AF80020FFF7D8
:1004C000D7FF044618B904F077F8204610BD012480
:1004D000FBE70000034A044B11681B780B441360D0
:1004E000704700BFA800002400000024014B1868DA
:1004F000704700BFA800002438B50446FFF7F6FF98
:100500000546631C1EBF044B1B78E418FFF7EEFF83
:10051000401BA042FAD338BD00000024034A5368B0
:1005200023F4600318435060704700BF0004005874
:10053000074A0002D36800F4E06023F4E0631B0480
:100540001B0C43F0BF6343F400330343D360704795
:1005500000ED00E0164B70B5DC684FF0FF36C4F3D9
:100560000224C4F10705231D042D28BF0425062BF2
:1005700006FA05F38CBF033C0024002821EA03039C
:1005800003FA04F306FA04F422EA040443EA040337
:100590004FEA0313DBB206DB00F1604000F5614077
:1005A00080F8003370BD00F00F00024A1354F9E7E1
:1005B00000ED00E014ED00E00138B0F1807F0AD2D8
:1005C000064BF021064A5860002082F823100722CB
:1005D00098601A6070470120704700BF10E000E08B
:1005E00000ED00E0BFF35F8F044A536A23F48033C9
:1005F00053620022024B5A60704700BF00ED00E0DA
:1006000090ED00E0064A40F00100064B5860536A46
:1006100043F480335362BFF34F8FBFF36F8F704744
:1006200000ED00E090ED00E04378124A10B59360D1
:100630000178D9B14368D360C37A047B1B0643EACF
:1006400004730B43817A43EAC143417B43EA81430C
:10065000817B43EA4143C17B43EA0143417A43EA58
:100660000123017A43EA4103136110BDD160116196
:10067000FBE700BF90ED00E08B680A6891F80CC0C2
:100680001A430B7C002B2DE9F04F08BF4FF40023D9
:1006900085B018BF002391F804E04F7B00934B7C9A
:1006A0008E7B002BCD7B8C7C0CBF4FF40033002362
:1006B00091F81C9001934B6991F81DB01A438B6916
:1006C00013438A7F002A0CBF4FF4806200220292FB
:1006D000CA7F039291F82020002A0268486AD2F863
:1006E00000A008BF4FF4807843EA0003C86A2AF0EC
:1006F0007F4A18BF4FF00008034303982AF47B0A8F
:100700002AF4FE4A2AF07C0A43EA0A0343EACE634B
:1007100043EACC5343EA875343EA465343EA05533B
:1007200043EA044343EA093343EACB2391F828B070
:1007300043EA4023009843EA0B1303430198034321
:100740000298034343EA08031360CE6B91F83230FA
:1007500091F83870002B536891F8305023F07C5397
:1007600091F831400CBF4FF48030002023F4EF2388
:1007700023F4FF6323F0070343EA46634E6B3343DE
:100780008E6C43EA076343EA85430D6D43EA4443B5
:1007900091F854400343486C5360D36823F4877343
:1007A00023F00103034391F8400043EA0023D360A0
:1007B00091F84C30002B136F23F0F2030CBF802014
:1007C00000201B041B0C43EA06432B43CD6D43EA78
:1007D000440391F8614003431367D2F8900091F805
:1007E000563020F00300034391F8550043EA4003DC
:1007F000886DC2F89030D2F8003D23F072030343B5
:10080000C2F8003D91F8603091F86210002BD2F8E8
:10081000303D23F07B030CBF402000202B4343EAF4
:10082000041343EAC1030343C2F8303D05B0BDE8F9
:10083000F08F0000026802F58050036823F4F04353
:1008400030B523F002030C680D79234341F2040410
:1008500003600B7B1059DB0320F4504043EA05335F
:100860008D6820F001002B43034302F5885013519B
:10087000124B05684C7B2B4043EA04430C6A23432C
:1008800041F2041403604B7F087D1B03155943EAB2
:100890000013086903430A482840034341F2081043
:1008A000135113580C7F23F00043896923F47C1300
:1008B00043EAC4730B43135030BD00BF00C0FEFFBA
:1008C000EFEFC0FFD0F828C02DE9F04F00EB8C0A05
:1008D0009346DAF81830DD68002D02DA0220BDE810
:1008E000F08F0C688E6814F004072AD02D0C4A6A29
:1008F000D0F800802D0445EA020E4EF48032DA6012
:10090000D8F8602042F48012C8F86020220718D579
:100910009D68AAB2CD6A42EA05450A6B9D6042F421
:1009200040322EF440252A43DA60D8F8642042F49D
:100930008012C8F86420D8F8502042F08062C8F8CD
:10094000502014F010080BD09D688A6925F47F555B
:1009500025F03F052A439A60DA6842F08062DA6047
:1009600014F0140E18D0DA6842F04045DD600CF146
:100970000105032D88BFACF1030500EB850EDEF801
:1009800018E0DEF80C90B9F1000F5EDA22F00042B8
:1009900042F08042DA60A1E76546D3F808900EF194
:1009A000010E326829F47F591A6029F03F097268F4
:1009B00049EA0209B268C3F8089029F07F5929F47E
:1009C0007C19002A45D016685E60566849EA0646DA
:1009D0009E60DE68B8F1000F43D026F4F0080E6A7E
:1009E00048EAC648CE694FEA984846F480264FEA5E
:1009F000884848EA0608C3F80C802FB19E6826F4A0
:100A000040478E6A3E439E60DE6826F0804747F08E
:100A10002047DF60A70706D5CC6826F0874644F05C
:100A200020443443DC60534E9468ACBB9A68BBF1FD
:100A3000000F00F09C8042F000429A60DA6842F0B9
:100A40008052DA608562002049E773464FF0010E5C
:100A5000A3E71A715A719A71DA713246C3F8089095
:100A6000B7E726F4FF484E6814F0010F28F07F081E
:100A700048EA0606DE601FBF26F440384E6948EAA1
:100A80000606DE60A606B8D5DE6826F040680E6968
:100A900048EA0606DE60B0E76F1C032F88BFEF1E32
:100AA00000EB87039B69D3F80C80B8F1000F15DACF
:100AB000DAF81810002296453FF410AFCB680132E7
:100AC00023F00043CB600CF10103032B88BFACF192
:100AD000030300EB83019C468969ECE722680EF171
:100AE000010ED3F808901A6009EA0609626849EA1B
:100AF0000209A268C3F8089029F07F5929F47C19EB
:100B0000D2B15568146849EA05455C609D600D687E
:100B1000EC0619D5CC694FEA984844F480244FEA92
:100B2000884844EA0804DC60DC683D4624F08044E0
:100B300044F00044DC6077E71A715A719A71DA71F7
:100B40002246C3F80890E2E728F4FF484C6828F0F2
:100B50007F0848EA0408EC07C3F80C8041BF28F47A
:100B600040384C6948EA0408C3F80C80DCE722F0FE
:100B7000004262E700C0FFFF0AB1032903D9012345
:100B800043651846704700EB8100C16A0A600A613C
:100B9000CA6842F08070C86023B142F040728B6036
:100BA0004B61CA60CB68002043F00043CB607047C4
:100BB00090F85120D2B2102A10B52AD1232341F245
:100BC000041480F851300368196841F0020119607B
:100BD000196841F001011960D3F8001D41F00101CD
:100BE000C3F8001D195941F00101195141F20814CF
:100BF000195941F00101195103F58B53196841F45A
:100C000081711960222380F8512080F85230002031
:100C100010BD0120FCE7F8B50446154629B9436D1F
:100C200043F001036365012027E090F85130102B59
:100C3000F9D10022FFF746FE18B1636D43F00203BD
:100C4000F0E7A36A9A1D54F822605A1C032A8ABF4F
:100C5000033BA262A362A26A2368063203F58953AA
:100C600054F822201A60FFF741FC0746F268002A78
:100C700004DB1023002084F85130F8BD236803F50D
:100C80008B531968C90409D5626D42F00802626588
:100C90001B68A365E02384F85130C4E76B1CE6D0E1
:100CA000FFF724FCC01BA84201D8002DDED1636DE4
:100CB00043F0040363651023EDE770B50446006854
:100CC0001D46D0F80032DB0701D5012070BDD0F8F9
:100CD000003223F0787343EA415121F4F81141EADC
:100CE000024242F00D02C0F80022FFF7FFFB064669
:100CF0002368D3F8000210F0010004D1D3F80432C5
:100D00009BB22B60E2E7FFF7F1FB801BB0F57A7F27
:100D1000EED9DAE738B504460068D0F80052ED079E
:100D200001D5012038BDD0F800029BB220F07870C8
:100D300040EA415121F4F81141EA02420C4922F003
:100D40000C02C1F8043242F00502C1F80022FFF79C
:100D5000CDFB05462368D3F8000210F00100E1D076
:100D6000FFF7C4FB401BB0F57A7FF3D9D9E700BF8A
:100D70000080024038B503680546D3F8004200F011
:100D800019FE124B124A24F470640344934205D8AE
:100D900044F400742B68C3F8004238BD0D4B0E4A72
:100DA0000344934202D844F44074F3E70B4B0C4ADB
:100DB00003449342EED90B4B0B4A0344934294BF36
:100DC00044F4807444F48064E4E700BF00D3CEFEB2
:100DD000BFE1E40040F1E9FD3F787D0100796CFC62
:100DE000FF596202001F0AFA7FF0FA0270B5054649
:100DF000A4B0002800F0C08090F851300BB903F087
:100E000035F92323287A85F85130964BD3F8F4200E
:100E100042F00202C3F8F420D3F8F43003F00203E6
:100E20000193019B002840F09880FFF777FB2B6827
:100E300003F580531A6842F001021A60FFF756FB6F
:100E400006462B6803F580531C6814F0010440F03B
:100E5000878028460126FFF78DFF00F0ABFD824B0F
:100E60002A680BA98DF83B6014948DF849408DF8E1
:100E70004B408DF830608DF85E608DF83A608DF8EB
:100E800054408DF88C608DF864401A948DF88D4034
:100E90008DF88E408DF838400D948DF83D608DF8BA
:100EA0003E408DF848401F941D9416948DF86C4078
:100EB0008DF882408DF84A608DF84C608DF85D4069
:100EC000B0FBF3F04FF40053013811934FF4C363B8
:100ED000C2F8DC0028461893202322934FF0405399
:100EE0000B934FF48043109302238DF839402193E4
:100EF0008DF880408DF881408DF85C408DF83C6025
:100F00001C948DF87860FFF7B7FB4FF4001302A92B
:100F100028468DF80C60089306934FF406730496E8
:100F20000A9302948DF824408DF815408DF81440F2
:100F30008DF81C408DF82540FFF77CFC2968686916
:100F400001F58852136823F4E01343F4002313607F
:100F500010F0030212D06E650BE04FF4000064E75E
:100F6000FFF7C4FA801BB0F5FA7F7FF66AAF04235F
:100F70006B65E02385F85130012071E041F20814DF
:100F80000B5923F4FF4323F07E0343EA4003E86850
:100F90000B5100F1600605F1180403461A705A70EF
:100FA0009A70DA701A715A719A71DA711A725A72E9
:100FB0009A72DA721A735A739A73DA7344F8043BAA
:100FC0001833B342EAD1AA6241F22C13032200245F
:100FD000CA5041F214132A69C85001F5895302F12D
:100FE0006006186005F12C0013461C705C709C7044
:100FF000DC701C715C719C71DC711C725C729C7287
:10100000DC721C735C739C73DC731C745C749C7466
:10101000DC741C755C759C75DC7540F8043B1833FA
:10102000B342E2D141F2301303206C64C5E90F44AE
:10103000C5E91244C85041F21C130020CA5048327E
:1010400041F22813CA506B689A88C1F800231B68C4
:10105000C1F8043310236C6585F8513085F852309F
:1010600024B070BD0044025840420F002DE9F04FFB
:101070000B6885B0DFF8C0814FF0B04901930023C1
:10108000DFF8B8E10127019A9F4002EA0705AF4265
:1010900040F0B7804A6822F01006022E16D14FEABF
:1010A000D30A03F0070B4FF00F0C00EB8A0A4FEA4C
:1010B0008B0BDAF820400CFA0BFC24EA0C0C0C69C0
:1010C00004FA0BF444EA0C04CAF820404FEA430A3D
:1010D0000324D0F800B002F0030C04FA0AF4013E35
:1010E0000CFA0AFCE443012E04EA0B0B4CEA0B0C4D
:1010F000C0F800C010D8866806EA040BCE6806FA6D
:101100000AFC4CEA0B068660466826EA0707C2F32B
:1011100000169E4037434760C66834408E6806FA22
:101120000AF63443C460D4006BD5D8F8F44023F0F9
:10113000030603F003074FF00F0C44F0020406F11E
:10114000B046BF00C8F8F44006F58066D8F8F44011
:1011500004F002040394039C0CFA07F4D6F808A0E8
:101160002AEA040C334CA04252D004F58064A04219
:1011700050D004F58064A0424ED004F58064A042B3
:101180004CD004F58064A0424AD004F58064A042AB
:1011900048D004F58064A04246D004F58064A042A3
:1011A00044D004F58064A04242D004F58064A0429B
:1011B00014BF0A240924BC40D70344EA0C04B460D9
:1011C0006FEA0506DEF8004054BF34402C43970315
:1011D000CEF80040DEF8044054BF34402C43D70220
:1011E0004FF0B047CEF80440D9F8004054BF344027
:1011F0002C4392023C607C6854BF34402C43C9F8B5
:1012000004400133102B7FF43DAF05B0BDE8F08FF3
:101210000024D0E70124CEE70224CCE70324CAE768
:101220000424C8E70524C6E70624C4E70724C2E768
:101230000824C0E70000025800440258800000580B
:10124000F8B503680546D8075CD42B68990700F108
:10125000AF802B68D90625D5AC4B1A6902F038024D
:10126000082A0BD01A6902F03802182A40F0F780D9
:101270009B6A03F00303012B40F0F180A34B1A6833
:10128000D20502D5EA69802A53D158684FF0F84256
:1012900092FAA2F2B2FA82F12A6A8A4020F0F84168
:1012A0000A435A602B68190700F10B812B689A06D4
:1012B00000F130812B685C071ED5954C236843F400
:1012C00080732360FFF712F906462368DA0540F1C0
:1012D0004681AB688D4C012B40F04881236F43F071
:1012E0000103236741F28834FFF700F9874E074670
:1012F000336F9B0740F160816A6A002A40F0638186
:1013000000202FE0814B1A6902F03802102A09D020
:101310001A6902F03802182A0DD19B6A03F0030300
:10132000022B08D1794B1B689A038ED56B68002B72
:101330008BD1012016E06B68744CB3F5803F12D15D
:10134000236843F480332360FFF7D0F86F4C0646E0
:1013500023689B033FF579AFFFF7C8F8801B64282B
:10136000F6D90320F8BDA3B9236823F480332360A2
:10137000236823F480232360FFF7B8F80646236828
:101380009F037FF562AFFFF7B1F8801B6428F6D9A1
:10139000E7E7B3F5A02F236803D143F4802323604C
:1013A000CEE723F480332360236823F48023CAE745
:1013B000564BE9681A6912F0380F07D01A6902F023
:1013C0003802182A28D19B6A9C0725D14F4A1368F6
:1013D000580701D50029ACD013684C4C23F01903F1
:1013E0000B431360FFF782F8064623685B070DD5B1
:1013F00061684FF47C3393FAA3F3B3FA83F22B6959
:10140000934021F47C321343636022E7FFF76EF8C8
:10141000801B0228E9D9A4E73C4C236879B123F06A
:1014200019030B432360FFF761F8064623685F0743
:10143000DED4FFF75BF8801B0228F7D991E723F091
:1014400001032360FFF752F80646236858077FF52B
:1014500000AFFFF74BF8801B0228F6D981E7EB6954
:101460002A4CEBB1236843F080032360FFF73EF87A
:1014700006462368DF050DD561684FF0F84393FAFF
:10148000A3F3B3FA83F22B6A934021F0F84213439B
:10149000636007E7FFF72AF8801B0228E9D960E7B5
:1014A000236823F080032360FFF720F806462368B3
:1014B000D8057FF5F7AEFFF719F8801B0228F6D99B
:1014C0004FE76B69114C83B1636F43F001036367AE
:1014D000FFF70CF80646636F9B073FF5E7AEFFF793
:1014E00005F8801B0228F6D93BE7636F23F0010360
:1014F0006367FEF7FBFF0646636F9F077FF5D6AE77
:10150000FEF7F4FF801B0228F6D92AE700440258B0
:1015100000480258AB696E4C83B1236843F4805392
:101520002360FEF7E3FF0646236898043FF5C2AE4A
:10153000FEF7DCFF801B0228F6D912E7236823F4AC
:1015400080532360FEF7D2FF0646236899047FF597
:10155000B1AEFEF7CBFF801B0228F6D901E7FEF7FC
:10156000C5FF801B64287FF6B0AEFAE6B3B9236FDF
:1015700041F2883723F001032367236F23F004032C
:101580002367FEF7B3FF0646236F98077FF5B4AED7
:10159000FEF7ACFF801BB842F6D9E2E6052B236FBD
:1015A00003D143F00403236798E623F00103236784
:1015B000236F23F0040394E6FEF798FFC01BA042BC
:1015C0007FF696AECDE6424C236903F03803182B24
:1015D0003FF4AFAE2368022A23F08073236069D101
:1015E000FEF784FF0646236899015DD4A36AAA6AC0
:1015F00023F47C7323F003031343EA6A43EA0213E0
:10160000A3626B6BAA6B013B013A5B0212049BB2B3
:1016100002F4FE0213432A6B013AC2F30802134399
:10162000EA6B013A120602F0FE42134323634FF6BF
:10163000F873626B93FAA3F3B3FA83F122F47F4257
:10164000AB6C22F0F8028B4013436363E36A2A6CAD
:1016500023F00C031343E362E36A6A6C23F0020392
:101660001343E362E36A43F48033E362E36A43F4DF
:101670000033E362E36A43F48023E362E36A43F006
:101680000103E362236843F080732360FEF72EFFBB
:101690000F4C054623689A013FF532AEFEF726FF50
:1016A000401B0228F6D95CE6FEF720FF801B0228CB
:1016B00099D956E6FEF71AFF054623689B017FF588
:1016C0001FAEFEF713FF401B0228F6D949E600BF04
:1016D00000440258474B1A6902F03802102A10B52C
:1016E00000F08580182A0CD00AB1434810BD1A6852
:1016F000424812F0200FF9D01B68C3F3C103D84051
:10170000F4E79C6AF7EE007A986AD96A5A6BC0F3DC
:10171000051001F00101C2F3CC024A4307EE102A82
:1017200004F00302012ABAEEE97A02D00ED3022AAB
:101730004CD01B6B304AC3F3080306EE903AF8EE28
:10174000E66A36EE877A37EE277A4BE01A6812F0AF
:10175000200F2A4A26D019681B6BC1F3C101C3F3BD
:101760000803CA40B2FBF0F206EE902AB8EEE66A31
:1017700006EE903AF8EEE66A36EE877A37EE277A8A
:1017800066EE077A1B4B1B6BC3F34623013307EE50
:10179000103AF8EEC76A87EEA67AFCEEC77A17EE23
:1017A000900AA3E71B6BC3F3080306EE903AF8EE2A
:1017B000E66AB2FBF0F336EE877A37EE277A07EE69
:1017C000903AF8EEE77A67EE277ADBE71B6B0C4A74
:1017D000C3F3080306EE903AF8EEE66A36EE877A2F
:1017E00037EE277AB2FBF0F207EE902AE9E70448D9
:1017F0007CE700BF0044025800093D000090D00380
:1018000000127A00674A136803F007038B422DE940
:10181000F04104460D4641D3226897074BD4D607C2
:1018200051D4604A136803F00703AB4200F2A6806C
:101830002268550700F1AD80100706D55A49606946
:10184000CB6923F070030343CB61D10606D556491B
:10185000A069CB6923F4E0630343CB61930606D50B
:10186000514AE169136A23F070030B431362FFF7D7
:1018700031FF4D4B4FF480729B6992FAA2F2B2FA9B
:1018800082F203F47063D340484AD35CD840484B9B
:1018900018600020FEF7ECFD00200AE0136823F03A
:1018A00007030B431360136803F007038B42B3D0A5
:1018B0000120BDE8F0813C49E0688B6923F00F030B
:1018C00003438B61ABE7384BA1689A6922F47062DD
:1018D0000A439A6161681A6802291CD112F4003F18
:1018E000E6D01A6941F288382F4F22F007020A43E6
:1018F0001A61FEF7FBFD63680646022B18D13B69AF
:1019000003F03803102B8CD0FEF7F0FD801B404510
:10191000F5D90320CDE7032902D112F0007FDFE7DC
:10192000012902D112F4807FDAE712F0040FD7E721
:10193000032B0BD13B6903F03803182B3FF471AF35
:10194000FEF7D4FD801B4045F4D9E2E7012B10D10E
:101950003B6903F03803082B3FF463AFFEF7C6FD85
:10196000801B4045F4D9D4E7FEF7C0FD801B4045FD
:10197000CFD83B6913F0380FF6D152E7136823F044
:1019800007032B431360136803F00703AB428FD1A7
:101990004EE7054920698B6923F0700303438B618F
:1019A0004AE700BF0020005200440258B45A000821
:1019B0002000002408B500F017F8084B01229B69AD
:1019C00092FAA2F2B2FA82F203F00F03D340044A71
:1019D000D35CD840034B186008BD00BF00440258D8
:1019E000B45A00082400002408B5FFF773FE084B22
:1019F0004FF480729B6992FAA2F2B2FA82F203F477
:101A00007063D340034AD35CD840034B186008BDD1
:101A100000440258B45A00082000002440BA80B2A2
:101A2000704708B500F00AF800F002FA00F05FFA1B
:101A300000F09EFEBDE8084000F070BE0A4B4FF477
:101A4000C8610A4A23F00303196000211360197169
:101A500003F5C861936051600549C3F84016012140
:101A600083F84416704700BFFF010024AC00002437
:101A70004006400670B50446002800F083808307C6
:101A800006D0414B4FF4D6724049414802F04AFE1D
:101A9000404D2B68A34202D86B68A34206D83A4B4C
:101AA00040F2AF123C493A4802F03CFE2B68A34298
:101AB00068D86B68A34265D914F8043CA4F1080601
:101AC00033B9314B4FF4E0723449314802F02AFE09
:101AD000002304F8043CAB68B3422B6888BFAE60B7
:101AE0009E4206D2284B40F25D122D49284802F052
:101AF00019FE6B689E4206D3234B4FF4AF722949FF
:101B0000234802F00FFE14F8043C33B11E4B40F2A0
:101B10005F1225491E4802F005FE34F8083CB3F573
:101B2000C86F06D9184B4FF4B1722049184802F01B
:101B3000F9FD2B6834F8081C5A18964210D0107919
:101B400070B9686882420BD0A86882425A5A24F859
:101B5000082C5A5AA6EB030108BFAE601A44518004
:101B600034F8062C99188E420CD0087950B9A86820
:101B7000864208BFA96034F8081C995234F8081C42
:101B80000B445A8070BD00BFC45A0008F35A0008C5
:101B9000145B0008AC0000243C5B0008535B0008A9
:101BA000675B00087E5B0008985B0008B35B000879
:101BB000F8B503314FF6FC7604460E400B2E04D9DF
:101BC000B6F5C86F02D900245AE00C262D4D2B68BB
:101BD000A34202D86B68A34206D82B4B4FF4FA728B
:101BE0002A492B4802F09EFD2B68A34248D86A6818
:101BF000A24245D9A4F1080234F8080CD21AA0F187
:101C0000080192B2891A89B2B14218D21E4B40F231
:101C1000062220491E4802F085FDD4E706F114078C
:101C20008F422DD802F10801AF680E44B6B299195F
:101C30008F4288BFA96000250D71985317E01FD00F
:101C40001F1897F804C0BCF1000FE7D102F108019A
:101C500033F800C0A8680E44B8424FF00000B6B296
:101C600003EB0601087108BFA96023F806C04A808B
:101C700024F8086C9A5BB2F5C86F01D013445E80FB
:101C80002046F8BDAC000024C45A0008DD5B000803
:101C9000145B0008F45B00082DE9F04100286DD0CA
:101CA00003304FF6FC7505400B2D04D9B5F5C86F10
:101CB00002D9002062E00C25354EC5F5C86C6FF0E6
:101CC0000708B76831687B1A9BB26345F1D2CC181C
:101CD000C85A94F804E0BEF1000F57D1A8EB0302F4
:101CE0000244AA4252D305F1140C624548D305F1CF
:101CF00008021A4492B201EB020C8CF804E08852FC
:101D0000ACF802300123228023718B5AB3F5C86FDF
:101D100001D019444A80A74212D12346D6E90002D5
:101D2000197911B19A422ED113469A42B36007D065
:101D300031B1184B40F2CF221749184802F0F2FC9B
:101D4000083573682544AB4206D2124B4FF4357206
:101D50001349124802F0E6FCA3070DD00D4B40F2E8
:101D6000D62210490D4802F0DDFC0A4B4FF43672C2
:101D70000D490A4802F0D6FC04F10800BDE8F081E4
:101D800001232371C7E71B880344C9E703469CE787
:101D9000AC000024C45A0008145C0008145B00085E
:101DA0002D5C00085D5C00088C5C000810B50468C0
:101DB00054B123680360A30706D0044B40F24912D4
:101DC0000349044802F0AEFC204610BDAF5C000899
:101DD000DF5C0008145B000838B58B0705460C462D
:101DE00006D0064B40F29D120549064802F09AFCC7
:101DF0002B681A6822601C6038BD00BFAF5C000809
:101E0000025D0008145B0008436800228168033308
:101E100030B523F0030344880A60944200DC30BDEF
:101E20000D6801321D6005880B602B44F5E700004A
:101E300010B50D4C2046FFF7E7FF04F10C00FFF74B
:101E4000E3FF04F11800FFF7DFFF04F12400FFF7C0
:101E5000DBFF04F13000FFF7D7FF04F13C00BDE8E1
:101E60001040FFF7D1BF00BF80550008052808B516
:101E700008D8094B03EB8000836C9868BDE80840E4
:101E8000FFF794BF054B40F287120549054802F061
:101E900049FC002008BD00BF80550008AF5C000869
:101EA000345D0008145B0008052806D9074B40F292
:101EB000DB120749074802F035BC31B1064B03EB92
:101EC0008000806C0830FFF787BF7047AF5C000868
:101ED000515D0008145B00088055000890F82B3015
:101EE00001461B0702D5043100F0DABF7047704786
:101EF00037B504460D4669B10B680193019A6368D2
:101F00009A4205D001A9201D00F0FAFD2DB96560A7
:101F100003B030BD054B1B68EFE72B686360002BF7
:101F2000F6D02046FFF7DAFFF2E700BFF4550008CD
:101F300070B5064615461C4609B10B684BB93046CC
:101F4000FFF7D6FF05B12D68B56004B12468F460D1
:101F500070BD02B11568B56004B12468F460304604
:101F6000BDE87040FFF7C4BF2DE9F843099E044661
:101F70000F46904699462EB9154BFB221549164837
:101F800002F0D0FB0323154A0025204684F82030B8
:101F9000089BE560E361137884F82B50591C84F8A2
:101FA0002E300A9B11704246236139464B46C4E9E4
:101FB0000155FFF7BDFF2046B04730B9084B1A68FE
:101FC00022601C602046BDE8F8832C46FAE700BF7B
:101FD0006C5D00089D5D0008145B0008D0000024C3
:101FE0000C320024014B1860704700BF10320024EF
:101FF00090F82B20D10709D442F00101520780F854
:102000002B1003D543680BB1FFF768BF704790F8FA
:102010002B30D90707D523F001011B0780F82B10BF
:1020200001D500F08BBE704790F82B20510709D4E2
:1020300042F00401D20780F82B1003D543680BB19E
:10204000FFF74CBF7047000070B5044670BB204BD3
:1020500040F23F221F49204802F064FB002070BD7F
:102060001D46267B60680EB1032E06D1401A04F18E
:10207000100290420AD20120F1E7013E012E10D851
:1020800000290BDA6289AA42F5D3401A628960609E
:102090001A446281228913442381DFE7002AF4D1A4
:1020A000E9E70B4B40F277220C490CE00029D5D030
:1020B0008BB2D5DA5D426089ADB2A842D1D2044B71
:1020C00040F247220649044802F02CFBD3E700BF48
:1020D000B45D0008365F0008145B0008025E00086B
:1020E000E45D000870B5049D04281ED8DFE800F008
:1020F0002603281B1B002220033020F00304BDF818
:1021000014000E1986424FF0000016D81860CDB1A9
:102110002C445C6002201A730122198158731846FE
:102120005981DA8109E00020E6E7074B40F2C51249
:102130000649074802F0F6FA002070BD3620DBE7BA
:102140000E20D9E75D60E5E7B45D0008105E000889
:10215000145B00080022FFF777BF0122FFF774BF6E
:102160002DE9F843044650B92546284B40F2D222C7
:102170002749284802F0D6FA2846BDE8F883037BB1
:10218000032B06D9214B40F2DE222349214802F0DD
:10219000C9FA00251D4EDFF888801E4FE38933B948
:1021A000334640F2EB224146384602F0BBFAE3895F
:1021B000013B9BB2E381002BDED1637BD4F800901E
:1021C0009B0711D5236933B9334640F2F9221349ED
:1021D000384602F0A7FA23692046984701354C4655
:1021E000EDB2002CDAD1C7E7237B032B04D12146C3
:1021F0000520FFF759FEF1E7013B012B02D82146EC
:102200000420F6E72046FFF735FCE7E7B45D000859
:10221000365F0008145B0008345E00085F5E00084B
:10222000495E00082DE9F84F0E46174604280ED8DF
:10223000DFE800F01503170B0B002225032F00F237
:10224000B880DFE807F08BA8A8100025F6E75B4B05
:102250004FF48B725A495B4802F064FA08E0362565
:10226000ECE70E25EAE70520FFF700FE044618B963
:1022700000242046BDE8F88F032300F51877068177
:1022800003730023036043190335133325F003055B
:1022900023F00303C5F514754360B54228BF3546E6
:1022A0002B4445819F4206D2444B4FF498724649D5
:1022B000444802F037FA0123A346DFF80081E381A6
:1022C0006389DFF810A1F61ADFF8F890002E04DC1D
:1022D0000123E38100236373CBE70520FFF7C6FDED
:1022E0000023054618B92046FFF73AFFC0E74373BD
:1022F000032203604FF6FF7302739E42CBF8000087
:1023000006D143464FF4A6725146484602F00AFAF7
:10231000B3B2B3F5147F2B8128BF4FF414736B81D4
:1023200005F110036B609B0706D043464FF4A9727A
:102330002649484602F0F6F96289636813449F42D1
:1023400006D2434640F255121F49484602F0EAF9C8
:102350000123AB46EB816B89F61AB7E705F1130051
:10236000F31C20F0030023F00303184480B29842CA
:10237000FFF47EAFFFF790FC044600283FF478AFEF
:1023800005440023068113354681036025F00305CB
:10239000037345609CE70420FFF768FD04460028AE
:1023A0003FF466AF002306814681436003600773F4
:1023B0008EE7024B4FF4C67205494CE7B45D000846
:1023C000805E0008145B00089B5E0008E05E000869
:1023D0000D5F0008CC5E00082DE9F8430D46044669
:1023E00030B92E4B40F2F3122D492E4802F09AF9E3
:1023F000237B032B06D9294B40F2F7122A4929489F
:1024000002F090F92689AE4245D9AE1B234FDFF882
:10241000A490DFF890806389AB4219D3227B002A15
:1024200031D1AB422FD0637B9B072CD4616820460F
:10243000091B294489B2FFF7BBFB044618BB174BA5
:1024400040F21D221949174802F06CF96481FFDE41
:10245000ED1A4FF6FE739E42ADB206DD3B4640F2EA
:102460000B224946404602F05DF92389334423811B
:102470002468002CCFD13B4640F20F220C49404645
:1024800002F050F9C7E720686581258108B1FFF7A0
:1024900067FE00232360BDE8F88300BFB45D000839
:1024A000285F0008145B0008405F0008845F000894
:1024B0006C5F00085B5F00080346002290B20132A7
:1024C00003B970471B68F9E758B1C38901339BB260
:1024D000C38133B9034B40F239320349034802F058
:1024E00021B97047B45D0008A05F0008145B0008C4
:1024F00070B50D46044600B161B9154B40F24D323E
:1025000014491548BDE8704002F00CB929890B4404
:102510002381144622682389002AF7D162899A42CE
:1025200006D00B4B40F255320C490B4802F0FAF83A
:10253000236833B1064B40F256320949064802F08F
:10254000F1F82A89238925601344238170BD00BFD7
:10255000B45D0008B25F0008145B0008E75F000884
:102560001460000810B50C46FFF7C2FF2046BDE816
:102570001040FFF7A9BF00002DE9F84F0C460546B3
:1025800020B119B102890B899A420AD2364B40F226
:10259000BD323649364802F0C5F86FF00F00BDE88D
:1025A000F88F4FF0000BDFF8C080DFF8D4A05F4653
:1025B000DFF8BC906E896389F61B6868A3EB0B0398
:1025C000616838449E425944ACBF9EB2B6B23744AB
:1025D000324602F094F86B89BFB25E44BB421FFAE8
:1025E00086FB06D2434640F2CD325146484602F0C1
:1025F00099F863895B4506D2434640F2CE321D49C5
:10260000484602F08FF863895B456B899CBF24685C
:102610004FF0000BBB4208D12D682DB914B3124BFB
:102620004FF476721449B5E700277CB1628923899B
:102630009A420BD123684BB10B4B40F2DE320F496B
:102640000B4802F06FF86FF00500A8E76A892B8944
:102650009A4205D12B681BB1034B40F2E332EEE7FF
:10266000002CA7D120469AE7B45D00085B60000803
:10267000145B0008A2600008BD600008CA60000882
:102680008B6000082DE9F041074603200E461546F1
:10269000FFF7ECFB044638B91C4BD4221C491D48FB
:1026A000BDE8F04102F03EB801F0F2FD1A4A1368AD
:1026B0005BB9506018460021384421606060C4E96D
:1026C00002652BB91460BDE8F0815168401AF2E749
:1026D0005968B94203D9CF1B5F602360F2E71846FF
:1026E00041686268521A0168626039B14D68AA4255
:1026F00001D30846F4E7AA1A4A6004E0BA4202D9B4
:102700005B681F44676021600460DCE7C761000804
:10271000FB610008145B0008D400002438B50A4DA2
:102720004FF47A70094C2A462146FFF7ABFF05F1BA
:10273000080221464FF47A70FFF7A4FF01F0A8FDCC
:10274000034B586038BD00BFE0550008552700080E
:10275000D400002410B50446436898470349224634
:102760002068BDE81040FFF78DBF00BF5527000867
:10277000704700004389072B2DE9F04F054685B0CF
:10278000894605D8284605B0BDE8F04FFFF7E8BCFC
:102790003D4E44683168706900F0ADFF07462088FF
:1027A000FFF73CF9804660880024FFF737F9374A85
:1027B0008246A6461068934603960346D6E904C1AE
:1027C0009BB91CB9D9F804308B42DBD16FF00701FB
:1027D0002846FFF7BFFC002834D02D4B40F255129D
:1027E0002C492D4801F09EFFCCE75A8A524526D14C
:1027F0001A6807B33AB14E1C05D04A401646D9F8BC
:10280000082016421BD11A7C520702D4002C08BFA4
:102810001C469A8A424512D15A680AB162450ED1C5
:10282000BEF1000F05D0DA68CBF80030CEF80C20EE
:10283000D8601C46CAE7002AE5D08A42E3D09E460B
:10284000DB68BDE764B1A669002E9BD0CDF800809F
:102850002A46124B2146E069B04705B0BDE8F08F2B
:10286000002F8FD1039B5B6903F0F003E02B89D02D
:10287000039B28469989083109B2FFF76EFC0321B2
:10288000284600F0BFFD7DE7E40100241432002457
:102890003862000867620008145B0008F401002435
:1028A000264B2DE9F041002908BF1946002842D0E7
:1028B000234ED6F800C06546CDB9002A39D1214B48
:1028C0004FF480444FF6FF7E1A887245674616BF64
:1028D00001324FF4404292B27FB91A800B684282B3
:1028E000036015B9C0F80CC03060002010E08542CC
:1028F00001D0ED68E0E70125DFE7B7F812809045E9
:1029000008D1013CA4B2002CDFD11A806FF007007F
:10291000BDE8F081FF68DFE7834206D05C8A94421D
:1029200003D11F680C68A742F0D0DB68002BF3D1FD
:10293000D4E76346FAE76FF00500E9E7F4550008CD
:1029400014320024080000242DE9F0430E4685B01F
:10295000904699460746002850D0002A4ED0428A19
:10296000002A33D008213046FFF7F4FB002837D186
:1029700034466389072B06D8234B4FF4377223491B
:10298000234801F0CFFE6568788AFFF747F8288072
:102990004846FFF743F800236880AB71EB7120894C
:1029A000FFF73CF80C9AA8802046BB7A02921122CD
:1029B0000D9901927A7A0092424600F013FEB442D9
:1029C000054609D02046FFF7CBFB05E00146FFF79F
:1029D00067FF05460028C5D0284605B0BDE8F0834E
:1029E000002208210120FFF71DFC044648B133896D
:1029F000002BBED03146FFF7B5FDBAE76FF00505F5
:102A0000EAE74FF0FF35E7E7386200087B6200082D
:102A1000145B000873B5069C90B18AB105681DB1BE
:102A200005F0F006E02E06D1251DCDE90045FFF7A3
:102A30008BFF02B070BD6668B54204D10546F4E76D
:102A40006FF00500F5E76FF00300F2E7F7B50E460B
:102A500014461F46054668B162B1104600F0DCFC22
:102A600058B100903B46224631462846FFF7D2FF38
:102A700003B0F0BD6FF00500FAE76FF00300F7E771
:102A8000024618B1838A0432FFF7E0BF6FF00500F9
:102A90007047000070B50D4616460446D0B1C9B166
:102AA000428A6AB12B68A6826360237C43F00403E8
:102AB00023740B4B1A68104640B9E2601C6004E0B6
:102AC0000146FFF7EDFE0028ECD070BDA04204D017
:102AD000C068F1E76FF00500F7E70020F5E700BFF9
:102AE0001432002410B50020FFF7C0F9044628B1C5
:102AF0002022002101F00EFEFF23A372204610BD0C
:102B000010B538B103682BB121B10B6813B1064B76
:102B10001B6803B910BD1C680268944204BF0A68B0
:102B20001A60DB68F5E700BF1432002470B5182680
:102B3000074C05464643A05918B1FFF711FB002387
:102B4000A351182303FB05440023237570BD00BF68
:102B5000DC0000242DE9F3470B9D894692469846F8
:102B6000074630B92C4B4FF48B622C492C4801F0AE
:102B7000D9FD00221C210220FFF754FB0646002845
:102B800047D043891B2B06D8234B40F2644225498A
:102B9000234801F0C7FD7468BDF83400FEF73EFF1E
:102BA000E08097F82430062B06D01B4B40F26B4296
:102BB0001D491B4801F0B6FDD8F800304A463146A1
:102BC0003846A360B8F80430A3812B68C4F81230EB
:102BD000AB880025E3820A9B1B68C4F80E300C9B6F
:102BE0001B682570A3610123E57063700823A3703F
:102BF000062323710423637140F6060300935346B2
:102C000001F074F93046FFF7ABFA284602B0BDE890
:102C1000F0874FF0FF30F9E7A9620008E062000892
:102C2000145B0008EE6200081F6300082DE9F74FEF
:102C30003D4B0A22044600200191964611468246E9
:102C40008146804694461D46BCF10A0F93F814B0A5
:102C500029D1BBF1000F29D14FFA80FC0130183384
:102C60000A28F1D1019B012B5BD1BCF10A0F3CD0AA
:102C70005FFA8CF6182303FB06531B7D33B12B4BF5
:102C800040F287122A492B4801F04CFD24B1182349
:102C9000226803FB06535A60182370B203FB0655E3
:102CA00000236B8208E0BBF1000FD7D03CB127684E
:102CB0005E68B74203D140B203B0BDE8F08FBBF10C
:102CC000010F5F8A0CD11E6826B14745C6D342B2B8
:102CD000B846C3E74F45C1D34FFA80FEB946BDE7BA
:102CE000574524BF41B2BA46B8E70A290FD0182386
:102CF000CEB259436B5833B10C4B40F26F120E49B0
:102D00000C4801F00FFD3046FFF710FFB2E7BEF1AF
:102D10000A0F02D05FFA8EF6F5E70A2A01D0D6B282
:102D2000F1E74FF0FF30C7E7DC000024A96200089C
:102D300077630008145B000860630008F8B5054677
:102D40000024084E182707FB04631A7D2AB19B68EC
:102D5000AB4202D12046FFF7E9FE01340A2CF2D142
:102D6000F8BD00BFDC0000242DE9F047804686B0A6
:102D70000C4649B9454B4FF422724549454801F08C
:102D8000D1FC06B0BDE8F08746683388B3F5807F94
:102D900008D13379062B05D17379042B02D17388BE
:102DA000082B03D04046FFF7DBF9EAE7D6F80E30F0
:102DB00006F108074D680593B36915B19D4262D0CD
:102DC00000254FF0020994F82430062B06D02F4B33
:102DD00040F2AB1230492F4801F0A4FC05980028BE
:102DE0003CD0214600F087FC8246B8BB059B03F02F
:102DF000F003E02B32D0494605A8FFF717FF002863
:102E00002CDB1822254B4FF0020E02FB00F103EBE6
:102E1000010C8CF814E04FF00C0ECCF8084012FBBB
:102E200000E2386803EB020E9850BA88AEF804202E
:102E300053F80190ACF812A0B9F1000F0ED043F88E
:102E400001A04FF4006304F1250249460093204697
:102E50003B4601F04BF84846FFF782F9F388B3F59B
:102E6000807F9FD1002D9DD0022204F125032046B2
:102E7000039205AA1946CDE90172221D00923A4635
:102E8000FFF768FE8EE70125A9469CE7A9620008C6
:102E9000E0620008145B0008E1630008DC00002425
:102EA0001FB50246012400F125030432CDE90214C6
:102EB0000449009201911946034AFFF74BFE04B002
:102EC00010BD00BFFE550008F85500082DE9F0417F
:102ED000154C002502260427A4F10408227B6AB1C0
:102EE000638901339BB2B3F5967F638103D2012AD4
:102EF0000AD1042B0CD92846FFF718FE01351834E7
:102F00000A2DEBD1BDE8F081032A08D12773F5E73C
:102F10001821206801FB0581FFF7C2FFEEE7042AB4
:102F2000ECD12673EAE700BFE40000242DE9F0436A
:102F30001823254D85B0064603FB025389461446E7
:102F40001B7D012B06D8214B40F2ED222049214860
:102F500001F0E8FB182304EB440106F1250803FB0C
:102F60000454C900237D01F10C07022B2F440BD11F
:102F7000638AB3F58E7F13D9043130462944FFF7B5
:102F80008FFF08B9032323754FF400634246494677
:102F9000304600933B4600F0A9FF05B0BDE8F08342
:102FA000B3F5877FF0D3012304313A4630460393CB
:102FB0002944094B029141460193331D0093434636
:102FC000FFF7C8FDDDE700BFDC000024A9620008B0
:102FD00005640008145B0008FE5500082DE9F3475E
:102FE0008946804601461746D9F8000000F083FB69
:102FF000064600285BD1D9F8003003F0F002E02A41
:1030000055D0002B53D001214846FFF70FFE051E77
:1030100050DB3E4C182303FB05431A7D1AB90126E9
:10302000C3F808801E75182303FB05431B7D33B9C5
:10303000374B40F2C9323749374801F073FB0EB9BC
:10304000002F39D149464046FFF72AFFB7BB02B0EF
:10305000BDE8F087FBD13E46DFF8B480DFF8BC90D6
:10306000DFF8B4A0728933899A4208D1336833B14A
:1030700043464FF47B724946504601F053FB337B85
:10308000012B31D13668002EECD1B8463846FFF717
:103090001BFA182303FB05F21E46A05808B1FFF7E0
:1030A0005FF806FB05F3002044F80380CFE76FF0DC
:1030B0000F00CCE72846CAE74FF0FF30182303FB88
:1030C0000542127D012AC5D90C223946404684F8B2
:1030D000F05013FB05234FF400622344009208F1E3
:1030E000250200F003FFB2E7002231890220FFF73A
:1030F00099F8804638B13946FFF73EFA0028C8D023
:103100004046FFF72DF84FF0FF30A0E7DC00002429
:10311000A962000835640008145B00085D640008BB
:10312000F0B50E4685B01546044630B93D4B40F229
:103130001B323D493D4801F0F5FA36B9394B4FF4A1
:1031400047723B49394801F0EDFA35B9354B40F249
:103150001D323849354801F0E5FA2146286800F06B
:10316000CAFA002858D12B6803F0F002E02A1BD1DC
:103170000123ADF808305E238DF80A306B7803F038
:103180007F038DF80B30AB788DF80C30EB788DF831
:103190000D3002AB4FF4006231462046009204F13C
:1031A000250200F0A3FE1EE06268A1685A400A42B0
:1031B00008D09BB24FF6A962934203D0E3686BB389
:1031C00004F10C051C4B182193F8F02001FB02318F
:1031D000087D012809D928684968884205D1314607
:1031E0002046FFF7A3FE05B0F0BD13490022087D7D
:1031F000012807D92F684868874203D1D2B283F8E3
:10320000F020ECE7013218310A2AF0D13246294683
:103210002046FFF7E3FEE6E7084BBBE76FF003004D
:10322000E1E700BFA9620008E0620008145B000843
:103230007A5F0008C2630008DC000024F85500082B
:10324000F0B5044687B00F4616462421002201201F
:10325000FEF7E8FF0546A0B34389232B06D81A4B97
:103260004FF4B17219491A4801F05CFA2268002340
:103270006C6802F11C00237104F108016371A371F1
:10328000E37113462770667053F8046B834241F86C
:10329000046BF9D106AED36846F8043D304600F021
:1032A000BBF858B1002101233246A170E1700290B1
:1032B0002846CDE90013FF2300F00CFA2846FEF75C
:1032C0004FFF07B0F0BD00BF77640008AC64000892
:1032D000145B0008454B2DE9F043D3F8089085B006
:1032E0000446884699F800501F4605F00F05AD00CA
:1032F000132D2AD94289032A27D942681278082A2D
:1033000023D1586900F0F002E02A1ED0196800F0BD
:10331000F2F90646C8B92389072B16D905F10E0123
:103320002046FEF717FF00284FD0218932460220A1
:10333000294489B2FEF776FF064630B1428905F18D
:1033400008039A4207D2FEF70BFF204605B0BDE8FE
:10335000F043FEF705BF49462A46406801F0CFF921
:1033600069423046FEF7F6FE38B1214BAF222149C3
:10337000214801F0D7F93046E5E721463046FFF70E
:10338000FBF80028F7D120463446FEF7E9FE29462F
:1033900020466668FEF7DEFE02460028D5D1616849
:1033A0007B69CB603B690B61FF233070B070F070BC
:1033B0000B728872C8720121CDF80880CDE9000136
:1033C0000E49204600F086F9BFE7C5F57F4120464B
:1033D000F23109B2FEF7BEFE0028D8D0044BC0225D
:1033E0000749054801F09EF9AFE700BFE40100245A
:1033F00077640008D8640008145B0008F801002412
:103400000D6500080A4604300321FFF719BF0A467C
:1034100004300B21FFF714BF134B30B51B686BB999
:10342000124A1268EAB192F82B1001F00501052941
:1034300017D15168002918BF134612E093F82B10DA
:10344000CD07EBD54C07E9D55A68002AE6D00468C9
:103450009D6862402A4204D08A07DFD4DA68944229
:10346000DCD1184630BD00BF0C32002410320024DD
:103470002DE9F84F47680546894697F800804FEADE
:103480001813042B05D02846FEF76AFE0020BDE87D
:10349000F88F788808F00F08FEF7C0FA2B894FEAFA
:1034A00088080446834203D901462846FEF794FF64
:1034B0006B894345E7D32B89A342E4D3B8F1130FBB
:1034C000E1D93B69454C636103F0F003FA68E02BF6
:1034D00022613ED199F82B30DA0703D5D9F80430B0
:1034E000002B5DD100264946206900F004F9002830
:1034F000C9D1236903F0F003E02BC4D0002EC2D061
:10350000FB8823F0C00333B1284600F025FA0546B6
:103510000028BBD04768A760C8F100012846C4E96D
:1035200000693B7803F00F039B00A381FEF712FEB6
:103530007B7A012B36D0112B39D149462846FFF72B
:1035400019F90023C4E90033A360A381C4E904335B
:103550009CE74E464FF0010ADFF884B096F82B3016
:10356000DB0704D4BAF1000F0DD1366810E07368A0
:10357000002BF7D060698342B5D0314600F0BBF82C
:103580000028EFD0AFE7237D7F2BABD0DBF80060C6
:103590004E454FF0000A08BF3668002EDED1A1E785
:1035A0004E46A0E749462846FFF794FEC9E7314654
:1035B000606900F0A0F868B9636903F0F003E02BDC
:1035C00008D041462846FEF7C8FD6F600221284614
:1035D000FFF718FF2846FEF7C3FDB2E7E401002419
:1035E0000C3200242DE9F3471F46C38905468A465D
:1035F000012B1646DDF8308006D0304B40F23332D6
:103600002F49304801F08EF8002E47D0142128466B
:10361000FEF7A0FD00284ED16B896C68132B06D8ED
:10362000264B40F261322849264801F07BF89DF88C
:103630002C302772002763723368DFF8949023617F
:10364000452323709DF8283063702889FEF7E6F93A
:10365000A7716080E771B9F80000FEF7DFF9B9F8EB
:103660000030A0800133A9F80030BAF1000F12D168
:10367000164B1B68E360A772E772B8F822309BB163
:103680002A899A4210D932464146284600F008FB62
:1036900002B0BDE8F087DAF80030EBE76B6802AE05
:1036A0001B6946F8043DE8E7D8F81430324629464D
:1036B00040469847ECE76FF00100E9E73F650008F6
:1036C00073650008145B00087F650008F455000866
:1036D000CE010024F0B4069C9DF810509DF81460B3
:1036E0001AB109B10F6807B9211D0495CDE9056428
:1036F000F0BCFFF777BF431E033311D891F82B308E
:1037000013F002030ED04A6882420BD08B6842400D
:103710001A4207D1DB4383430CBF012000207047CE
:10372000012070470020704738B50C4B04460D4609
:103730001A68824207D102681A6021460120BDE85A
:103740003840FEF7B1BB31B9054B40F2451205498F
:10375000054800F0E7FF23682B60EEE7D001002466
:10376000AC650008E5650008145B000881422DE99E
:10377000F84F05460F4605D12F4BAB222F49304855
:1037800000F0D0FF47B13B68AB4205D02A4BAD22D9
:103790002C492B4800F0C6FF6E6873689A8892BB6C
:1037A0001A6805F11C016A6005F1080252F8040B61
:1037B0008A4243F8040BF9D101213046FFF727FE76
:1037C0003046FEF779FE04463046FEF7C9FC6E68C7
:1037D000DFF86480DFF87890DFF864A0AEB928469F
:1037E000194D3946FFF7A0FFAB88A34205D2124B13
:1037F000D2221649124800F095FFAB8820461B1BC9
:10380000AB80BDE8F88F0024E1E773683046D3F859
:1038100000B0FEF751FE0444B4F5803F05DB43469B
:10382000CC224946504600F07DFF3046A4B2FEF758
:1038300097FC5E46D2E700BFAC650008FE65000855
:10384000145B00080A660008D001002439660008ED
:103850001C6600082DE9F04106460F460025DFF8FA
:1038600068800024D8F800302146A446204653B989
:1038700010B1FFF77BFF0544BD4201DA012CF0DCFB
:103880002846BDE8F081D6F80CE05A69724509D1A6
:10389000D6F810E09A69724504D1B3F80CE0B2880A
:1038A000964508D0013460B1C27F93F81FE0964579
:1038B0009CBF614618461A68002A18BF9C461346EA
:1038C000D5E761461846F6E7D001002410B5044656
:1038D00030B9064B40F2AE220549064800F022FFFF
:1038E00021460220BDE81040FEF7DEBAAC650008B4
:1038F000365F0008145B000810B5044630B9084B69
:103900004FF42E720749084800F00CFF606908B1B7
:10391000FEF726FC2046BDE81040FFF7D7BF00BFEA
:10392000AC65000854660008145B000838B5094B04
:103930000024186800B938BDC37F056823B1013B76
:10394000C37704462846F5E72146FFF70FFF2046D8
:10395000F7E700BFD00100242DE9F74F456807467F
:103960002B7803F00F03052B40F08B80E888FEF7DF
:1039700055F8C0F30C00B14E4FEAC0096888FEF755
:103980004DF82B7803F00F03A0EB830083B2384689
:103990000193FEF791FDB388824603440A2B67DC4E
:1039A0003468002C72D10120FEF760FA044658B941
:1039B00051462846FFF74EFF824562DC0120FEF7A4
:1039C00055FA044600285CD01C220021201D00F07E
:1039D000A1FE032304F1080205F11401E377336823
:1039E000346023602B4653F8040B8B4242F8040BDF
:1039F000F9D1B5F806B01BF0200B08D1019B4B4460
:103A00009BB299453DD84FF6EB72934239D87D6809
:103A10006888FEF703F895F8008008F00F08A0EB1F
:103A20008808E888FDF7FAFFC0F30C001FFA88F851
:103A3000D4F804C0C0007E680025624608EB00038D
:103A40004FF0010835709BB27570B570F570B0809D
:103A5000F38052BB002D40F08E80BCF1000F7BD074
:103A6000774B4FF4DA727749774800F05BFE73E0EA
:103A700001462846FFF7EEFE18B1B38853440A2BDF
:103A80008EDD3846FEF76CFB0025D2E0EB686269FC
:103A90009A4208D12B69A2699A4204D1A289AB88C3
:103AA0009A4200F0D98024687BE75168B1F804E0BD
:103AB000704553D23260002D4CD0EA889042C0F05D
:103AC0008E80734500F28B8090422F6040F0E08042
:103AD000BBF1000F04D0A37F13F0010300F08A8034
:103AE000B8F1000F56D14FF00008544EB3889A44F5
:103AF000A6F804A0BBF1000F07D1019B9944A37F56
:103B000043F00103A4F81C90A377B8F1010FBBD1D7
:103B1000A38B04F11C011433A38363685D6804F173
:103B200008032F682A4653F8040B8B4242F8040B13
:103B3000F9D1A08BFDF772FF00236880AB71EB71A8
:103B4000AB72EB726568002F56D13168A14265D126
:103B5000394665E0734542D86760B9E73FD0CA8807
:103B600082423CD825B1EA88724518BF4FF0000860
:103B70000A680D466DE7EB88834206D9304B40F268
:103B8000AB123249304800F0CDFD2F60EA88B3888F
:103B90009A429BE76368002BA5D059688B88002B5D
:103BA000A1D133689BB9B14206D1254B4FF4EB72DA
:103BB0002749254800F0B6FD3368002B95D0204BEF
:103BC0004FF4EC722349204800F0ACFD8DE75A68B1
:103BD000F0889388984286D113681646E2E7384603
:103BE000FEF76AFC154A9388181A90803846FEF74B
:103BF000B7FA46E7984678E7D7F804806FF01301E4
:103C00003846FEF7A7FA39462846FEF771FCD8F881
:103C1000007098E70B68A34202D019460029F9D139
:103C20002046FFF781FD2846FEF746FCB388181AA8
:103C3000B080284603B0BDE8F08F00BFD00100245B
:103C4000AC6500087E660008145B0008606600082A
:103C5000B5660008C2660008E888FDF7DFFEC0F31D
:103C60000C0000287FF4C5AEE089FDF7D7FEC0F355
:103C70000C0000283FF4BDAE2B4604F1080205F10C
:103C8000140153F8040B8B4242F8040BF9D1B0E64F
:103C9000BBF1000F3FF427AF4FF000081BE700BF58
:103CA0002DE9F04FB1F8228008238BB00746A8F128
:103CB00014088B46089298FBF3F81FFA88F30793D1
:103CC00043681E78029306F00F06B600142E0BD040
:103CD0005A4B40F2E1225A495A4800F023FD6FF056
:103CE00005000BB0BDE8F08F029BD888FDF796FE6B
:103CF000C0F30C0310F40054049304D04F4B40F273
:103D0000E6225149E8E73D891FFA88F8143D4FEA59
:103D1000C803ADB206930DB92846E2E7069B002220
:103D200014210220AB42A8BF2B469BB20593FEF79D
:103D300079FA804670B37B89132B06D83F4B40F24B
:103D4000093242493F4800F0EDFC029BD8F80420BC
:103D50001946143153F8040B8B4242F8040BF9D185
:103D6000D8F80430DDF814900393B9F1000F37D080
:103D70007C89A41BA4B24C4528BF4C4614B93F68AB
:103D80000026F2E70220FEF771F8824628B9404685
:103D9000FEF7E6F94FF0FF30A3E7019402227B68BB
:103DA00021463344009303460420FEF79BF918B9DB
:103DB0005046FFF78BFDEAE70990A9EB0409384666
:103DC000FEF782FB224B1FFA89F9CAF81470CAF871
:103DD000103040460999FEF78BFBB9F1000FCED1A8
:103DE000049B2644C3F30C00BBF82230B6B2133B4D
:103DF0009D42A8BF40F40050FDF710FE039BD88001
:103E0000059B03F1140080B2FDF708FE039B039AA3
:103E100041465880002358469372D372DBF8143021
:103E2000089A98474046FEF79BF9059B079AED1ABA
:103E3000049B1344ADB29BB204936CE7AC650008DD
:103E4000E4660008145B00080B670008256700089B
:103E5000F938000843890E2B70B504460D4614D975
:103E6000406803788689D9070AD5012B11D1437898
:103E700033B983785E2B03D1637B43F01003637304
:103E8000082E10D0B6F5C16F1ED02046FEF768F997
:103E900018E00622144900F023FC0028F0D1637BCF
:103EA00043F00803EBE795F82B301A07EDD56FF0D8
:103EB0000D012046FEF74EF90028E6D1294620469E
:103EC000FFF7D6FA002070BD95F82B301B07DCD524
:103ED0006FF00D012046FEF73DF90028D5D12946A7
:103EE0002046FEF741FFEDE7F85500082DE9F041C7
:103EF0000D460446BDF8180016461F46FDF78EFD18
:103F00000E2180462846FEF725F9E0B96968A1F838
:103F10000C803B680B60BB888B803368C1F806302F
:103F2000B3884B8194F82430062B06D0084B4FF40D
:103F300096720849084800F0F5FBA3692946204617
:103F4000BDE8F04118476FF00100BDE8F08100BF07
:103F5000456700087A670008145B0008134A0023CD
:103F6000F0B5C2F88430BFF34F8FD2F8803043F6FB
:103F7000E076C3F3C904C3F34E33A5075B0103EA3C
:103F8000060C284621464CEA0007013900F1404062
:103F9000C2F874724F1CF6D1203B13F1200FEED102
:103FA000BFF34F8FBFF36F8FF0BD00BF00ED00E098
:103FB00028B100234373C3818360C0E90033704795
:103FC0000020704730B500228DB00C46ADF10403DF
:103FD00011466CB9104D6A60C5F808D0FFF7BEFFF6
:103FE000224629460D48FCF716FE20460DB030BD8E
:103FF00004290DD06068586060899860024409B156
:10400000181D1860246804B9DC6001310C33E0E746
:104010006FF00B00EAE700BFA03200243832002422
:10402000FCF764BA08B50248FCF7A4FE002008BDFE
:104030003832002408B513460A4601460348FCF707
:104040003CFE003018BF0120404208BD3832002439
:1040500008B513460A4601460348FCF75BFE0030EC
:1040600018BF0120404208BD383200240268314B9D
:104070009A4270B588B05AD12F4B022400250B26E6
:10408000D3F8D82003A92D4842F40042C3F8D82021
:10409000D3F8D82002F400420092009AD3F8D82036
:1040A00042F48032C3F8D820D3F8D82002F480320A
:1040B0000192019AD3F8D82042F40032C3F8D820F4
:1040C000D3F8D830079603F400330293029BCDE96E
:1040D0000344CDE90555FCF7C9FF862303A9184819
:1040E0000796CDE90334CDE90554FCF7BFFF302333
:1040F00003A912480796CDE90334CDE90554FCF72E
:10410000B5FF4FF4005303A90E480796CDE90334D9
:10411000CDE90554FCF7AAFF4FF4205303A90A4840
:104120000796CDE90334CDE90554FCF79FFF08B0AD
:1041300070BD00BF008002400044025800080258D1
:104140000000025800040258001802582DE9F347F5
:10415000044630B93E4B40F217223E493E4800F03B
:10416000E1FA47F273433D4D0026DFF81CA1A38519
:1041700028463B4BA946ADF804606361394BC5F84E
:1041800004D0A361384BDFF804812B60374B0093D8
:1041900001232B72364BEB60364B2B6140F2F4530C
:1041A0006B61FCF723FE344B30220746314618463C
:1041B00000F0B0FA212240F8042C4FF440320261A2
:1041C0004FF4BF6200233146484602FB06A2FCF7CB
:1041D000D3FC1423294A03FB06830136042E1A61FB
:1041E000EED106232649274884F824306B681A78D4
:1041F00084F825205A7884F826209A7884F8272095
:10420000DA7884F828201A7984F829205B7984F8F0
:104210002A3040F2DC53638494F82B3043F00A03D5
:1042200084F82B30FCF7ACF81648FCF7BDF867B9FA
:104230002046FDF7DDFE2046FDF7F6FE0748FCF7B9
:10424000B7FC002002B0BDE8F08700F0B3F9F8E752
:10425000AB670008E0620008145B000838320024F5
:1042600021310008C53F0008008002400080E100C5
:104270006000043000000430A4320024B13F000884
:104280000C0000241832002400020430D432002430
:10429000FCF72CB9F0B5AC231D4C1E4E3D221E4D33
:1042A000142123700027A37085B03370B3700123ED
:1042B000F270FF226170E37071702A706A70AA70E8
:1042C000EF70FDF7AEFB15493368154A0B602B689C
:1042D00020681360134B144C186014480290144863
:1042E000CDE900702046FDF73FFE2046FDF77AFE3F
:1042F00094F82B3020465B0704D505B0BDE8F040AC
:10430000FDF776BE05B0BDE8F040FDF780BE00BF0A
:1043100024330024603300245C3300245833002409
:10432000643300246833002428330024553E0008F9
:104330004D41000830B59DB01C2200210BA800F0B3
:10434000E9F92022002101A800F0E4F91E4BDA6807
:1043500022F00402DA60002200929A6942F440429C
:104360009A619A6902F440420092009A9A69900414
:10437000FCD501234FF4803202240025149309A8B0
:104380001B95CDE909326423CDE915340423CDE929
:1043900017340C23CDE91244CDE91935FCF750FF51
:1043A0003F220323082101A80395CDE901234023DF
:1043B0004FF48062CDE9041321460693CDE907232B
:1043C000FDF720FA1DB030BD00480258F0B5ADF23F
:1043D000CC4D0021102206AC204600F09BF9FCF7E2
:1043E00001F901236A4A204623806A4BC4E901236C
:1043F0004FF08073E360FCF717F940F20113664950
:10440000204623800D23C4E901134FF48033E36079
:10441000FCF70AF90420FCF7F5F8BFF34F8FBFF360
:104420006F8F5E4B0021C3F85012BFF34F8FBFF365
:104430006F8F5A6942F400325A61BFF34F8FBFF356
:104440006F8FC3F88410BFF34F8FD3F8802043F6EB
:10445000E077C2F3C905C2F34E32AE07520102EA59
:10446000070E3046294601394EEA000C00F1404063
:10447000B1F1FF3FC3F860C2F5D1203A12F1200F2D
:10448000EDD1BFF34F8F5A6942F480325A61BFF3C6
:104490004F8FBFF36F8FFCF70DF8FFF74BFF404BCB
:1044A000D3F8E02042F08002C3F8E020D3F8E02007
:1044B00002F080020192019AD3F8E02042F0040257
:1044C000C3F8E020D3F8E02002F004020292029A3E
:1044D000D3F8E02042F00102C3F8E020D3F8E02056
:1044E00002F001020392039AD3F8E02042F00202A4
:1044F000C3F8E020D3F8E02002F002020492049A0C
:10450000D3F8E02042F04002C3F8E020D3F8E030D6
:1045100003F040030593059BFFF7BCFE214B2246A9
:104520000093214B03F110061868083353F8041C5C
:104530001546B34203C52A46F6D1198840F29D427A
:104540009B7804F1130029800021AB7000F0E2F8A1
:10455000FEF7C8FA054607221449FEF7A1F941F60D
:10456000907269462846FEF795FA00224FF4805172
:104570001046FDF757FE0E4B446021461860284652
:10458000FEF77EFA4FF47A70FBF7B6FFFAE700BF4A
:1045900000000430070000030040043000ED00E09C
:1045A00000440258AC14AC1404560008F45500083A
:1045B0006C33002470470000074B82B0D3F8F4201E
:1045C00042F00202C3F8F420D3F8F43003F00203FF
:1045D0000193019B02B0704700440258FBF77ABF79
:1045E00014491548D1F8883043F4700310B5C1F868
:1045F0008830124B1A6842F001021A6000221A61D8
:104600001C68204018609A61DA611A629A62DA6264
:104610001A635A639A63DA631A645A64186820F456
:10462000802018601A660122054B1A604FF0006363
:104630008B6010BD00ED00E07FEDF6EA004402580B
:1046400008810051DFF834D0002103E00C4B5B58A7
:10465000435004310B480C4B42189A42F6D30B4A94
:1046600002E0002342F8043B094B9A42F9D3FFF7DA
:10467000B7FF00F011F8FFF7A9FE7047000008240B
:1046800060680008000000248C0000248C000024D6
:1046900078330024FEE7000070B50D4E0D4CA41BCE
:1046A000A4100025A54209D10B4E0C4C00F05CFF74
:1046B000A41BA4100025A54205D170BD56F82530D5
:1046C00098470135EEE756F8253098470135F2E76F
:1046D0005868000858680008586800085C680008B6
:1046E00030B50024A24201D1002007E0035D01346F
:1046F0000D1915F8015CAB42F4D0581B30BD10B554
:10470000431E0A44914200D110BD11F8014B03F839
:10471000014FF7E702440346934200D1704703F884
:10472000011BF9E70FB40A4B13B51C6824B1A36948
:1047300013B9204600F04EF805AB049AA168019326
:10474000204600F055F902B0BDE8104004B07047B3
:1047500028000024002310B50446C0E9003383601C
:1047600081814366C281C0E904338361194608220E
:104770005C30FFF7CFFF054B6362054BA362054B2F
:10478000E362054B2462236310BD00BF4D4F000858
:104790006F4F0008A74F0008CB4F0008014900F0F9
:1047A00085B800BFA552000870B54A1E682555435C
:1047B0000E4605F1740100F097F8044640B100215F
:1047C000C0E900160C30A06005F16802FFF7A2FFF7
:1047D000204670BD836910B5044633BBC0E912336F
:1047E0000365124B124A1B688262984204BF012380
:1047F000836100F01FF86060204600F01BF8A060A5
:10480000204600F017F80022E06004216068FFF7FE
:10481000A1FF01220921A068FFF79CFF02221221BB
:10482000E068FFF797FF0123A36110BDC067000890
:104830009D470008F8B51B4B1E68B369074613B9BE
:104840003046FFF7C7FF4836D6E90134013B03D5B0
:10485000336833B13668F7E7B4F90C506DB168349A
:10486000F4E704213846FFF79FFF30600028F1D1BC
:104870000C233B6004462046F8BD0B4B6566C4E93B
:104880000055A560C4E90335C4E905550822294649
:1048900004F15C00FFF73EFFC4E90D55C4E9125571
:1048A000E9E700BFC06700080100FFFF2DE9F843FA
:1048B0008046894600F14804002614B93046BDE818
:1048C000F883D4E90175013F01D52468F5E7AB8988
:1048D000012B07D9B5F90E30013303D029464046E4
:1048E000C84706436835EEE770B5CD1C25F00305D3
:1048F00008350C2D38BF0C25002D064601DBA942DA
:1049000003D90C233360002070BD00F06BFD214AF9
:104910001468214691B9204C23681BB9304600F039
:1049200005FB20602946304600F000FB431C24D1E3
:104930000C233360304600F056FDE4E70B685B1B48
:1049400018D40B2B0FD90B60CD50CC18304600F08B
:104950004AFD04F10B00231D20F00700C31AD3D039
:104960005A42E250D0E78C424B6816BF6360136036
:104970000C46EBE70C464968CCE7C41C24F0030462
:10498000A04205D0211A304600F0D0FA0130CFD035
:104990002560DBE7D8010024DC0100249368013B9B
:1049A000002B10B4936008DA9469A34201DB0A2952
:1049B00003D15DF8044B00F00DBB1368581C106068
:1049C000197008465DF8044B7047F8B506460F4667
:1049D0001446D518AC4201D1002007E03A4614F83D
:1049E000011B3046FFF7DAFF431CF3D1F8BD00008E
:1049F0002DE9F04F0C469DB017461D46064618B1EE
:104A000083690BB9FFF7E6FE7C4B9C4258D1746872
:104A1000A38918075ED52369002B5BD00023099377
:104A200020238DF8293030238DF82A3003954FF05C
:104A3000010BB846454615F8013B0BB1252B54D167
:104A4000B8EB070A0BD053463A4621463046FFF7EB
:104A5000BCFF013000F0C280099B5344099398F8D1
:104A60000030002B00F0BA8000234FF0FF32CDE978
:104A70000523049307938DF853301A93A846052213
:104A800018F8011B5E48FBF72BFC049B78BBD9068A
:104A900044BF20228DF853201A0744BF2B228DF8E3
:104AA00053202A782A2A2AD0079AA84600200A25C5
:104AB000414611F8013B303B092B69D960B324E032
:104AC000504B9C4201D1B468A2E74F4B9C4208BFB7
:104AD000F4689DE72146304600F0E0FA00289DD0BA
:104AE0004FF0FF301DB0BDE8F08FA846A2E7444A62
:104AF000801A0BFA00F0184304904546BEE7039A6B
:104B0000111D12680391002A01DB079204E0524252
:104B100043F002030792049398F800302E2B0ED135
:104B200098F801302A2B38D1039B1A1D1B68039279
:104B3000002BB8BF4FF0FF3308F102080593334D47
:104B400098F8001003222846FBF7CAFB40B1402327
:104B5000401B03FA00F0049B034308F1010804938F
:104B600098F800102A488DF82810062208F101074D
:104B7000FBF7B6FB002837D0264B1BBB039B073344
:104B800023F0070308330393099B4B44099350E731
:104B900005FB0232012088468AE7002308F101085C
:104BA000059319460A25404610F8012B303A092A88
:104BB00003D9002BC3D00591C1E705FB01210123D7
:104BC0008046F0E703AB00932246134B04A930461E
:104BD000AFF30080B0F1FF3F8146D5D1A3895B06DA
:104BE0003FF57EAF09987DE703AB009322460A4B61
:104BF00004A9304600F088F8ECE700BFE46700083D
:104C00002468000804680008C46700082A680008CF
:104C10002E68000800000000CB4900082DE9F0478D
:104C200091461F468A680B69DDF820809342B8BF21
:104C30001346C9F8003091F8432006460C4612B1DD
:104C40000133C9F800302368990642BFD9F8003013
:104C50000233C9F80030256815F0060507D104F1C4
:104C6000190AE368D9F800209B1AAB4228DC94F8B3
:104C700043302268003318BF012392062DD404F17B
:104C8000430239463046C047013020D02368E568EA
:104C9000D9F8002003F00603042B08BFAD1AA3685F
:104CA00022690CBF25EAE57500259342C4BF9B1A13
:104CB000ED184FF000091A344D451AD1002008E0D4
:104CC0000123524639463046C047013003D14FF0E8
:104CD000FF30BDE8F0870135C3E7E1185A1C3020EA
:104CE00081F84300224494F8451082F843100233BF
:104CF000C5E70123224639463046C0470130E6D099
:104D000009F10109D8E700002DE9F04301F1430C56
:104D10000C46097E85B06E291746064698460C9AC1
:104D200000F0B38022D8632936D00AD8002900F0D9
:104D3000B980582900F0838004F1420584F84210BC
:104D400032E0642901D06929F6D12068136805068C
:104D500003F104012AD51B681160002B03DA2D2210
:104D60005B4284F843206F480A2239E0732900F03F
:104D70009D8008D86F2920D07029DDD1236843F0A9
:104D80002003236003E0752917D07829D4D1782334
:104D900084F84530644855E01368191D1B6811609C
:104DA00004F1420584F8423001238CE01B68116055
:104DB00010F0400F18BF1BB2CFE713682568181D0D
:104DC0001060280601D51B6802E06806FBD51B8829
:104DD00054486F2914BF0A220822002184F8431086
:104DE0006568A560002DC0F29580216821F004015E
:104DF0002160002B3DD1002D40F08E806546082AB1
:104E00000BD12368DB0708D5236962689A42DEBFAD
:104E1000302305F8013C05F1FF35ACEB05032361B8
:104E2000CDF800803B4603AA21463046FFF7F6FE48
:104E300001304DD14FF0FF3005B0BDE8F083394867
:104E400084F84510136821681D1D1B6815600A064B
:104E50000BD5CA0744BF41F0200121601BB922686D
:104E600022F0200222601022B7E74D0648BF9BB215
:104E7000EFE76546B3FBF2F102FB1133C35C05F8C3
:104E8000013D0B460029F5D1B9E713682568616932
:104E9000181D106028061B6801D5196002E06A061B
:104EA000FBD51980002323616546B9E71368191DF6
:104EB00011601D68626800212846FBF711FA08B1ED
:104EC000401B606063682361002384F84330A7E7D8
:104ED00023692A4639463046C0470130AAD02368A4
:104EE0009B0713D4E068039B9842B8BF1846A3E71A
:104EF00001234A4639463046C04701309AD0013531
:104F0000E368039A9B1AAB42F2DCEBE7002504F15D
:104F10001909F5E7002BACD1037884F8423004F18D
:104F200042056CE7356800084668000838B5064C4D
:104F3000002305460846236000F000FB431C02D115
:104F4000236803B12B6038BD7433002410B50C46C0
:104F5000B1F90E1000F096FA0028ABBF636DA3897B
:104F60001B1823F48053ACBF6365A38110BD2DE9EA
:104F7000F0411F468B89DB0505460C46164605D5D4
:104F800002230022B1F90E1000F0B6F9A389B4F99A
:104F90000E1023F48053A38132463B462846BDE8D9
:104FA000F04100F069B810B50C46B1F90E1000F0F0
:104FB000A3F9431CA38915BF606523F4805343F410
:104FC0008053A38118BFA38110BDB1F90E1000F06A
:104FD000D3B80000F8B50E461446054618B18369EB
:104FE0000BB9FFF7F7FB214B9C422AD16C68A369F0
:104FF000A360A3891A072ED5236963B323692068A8
:10500000C01A6369F6B28342374604DC214628465B
:1050100000F048F928BBA368013BA36023685A1C31
:1050200022601E7063690130834204D0A389DB07CC
:1050300019D50A2E17D12146284600F033F990B130
:105040000FE00B4B9C4201D1AC68D0E7094B9C426E
:1050500008BFEC68CBE72146284600F01FF800287F
:10506000CCD04FF0FF373846F8BD00BFE4670008EA
:1050700004680008C467000838B5074C05460846B0
:105080001146002222601A4600F066FA431C02D143
:10509000236803B12B6038BD74330024324B70B5E4
:1050A0001D6806460C4625B1AB6913B92846FFF7C3
:1050B00091FB2E4B9C420FD16C68B4F90C309AB224
:1050C00015072CD4D00611D40922326043F04003D6
:1050D000A3814FF0FF303EE0254B9C4201D1AC68EC
:1050E000EBE7244B9C4208BFEC68E6E7510712D57A
:1050F000616B41B104F14403994202D0304600F0A3
:1051000073F900236363A38923F02403A38100239D
:10511000636023692360A38943F00803A3812369A3
:105120004BB9A38903F42073B3F5007F03D0214664
:10513000304600F017F9A28912F001030CD00023C9
:10514000A36063695B42A361236953B9B4F90C306E
:1051500013F08000BAD170BD920758BF6369A36095
:10516000F2E70020F7E700BF28000024E46700080A
:1051700004680008C467000838B5064C00230546DB
:105180000846236000F0B2F9431C02D1236803B142
:105190002B6038BD743300248A892DE9F04105461F
:1051A00010070C4658D44B68002B05DC0B6C002B09
:1051B00002DC0020BDE8F081E66A002EF9D0002371
:1051C00012F480522F68216A2B6032D0606DA3895F
:1051D0005A0705D56368C01A636B0BB1236CC01AFC
:1051E00000230246E66A216A2846B047431CA38989
:1051F00006D129681D2948D8294ACA40D60744D56E
:1052000000226260D9042269226004D5421C01D1C7
:105210002B6803B96065616B2F600029C9D004F168
:105220004403994202D0284600F0DEF80020606373
:10523000C0E701232846B047411CC8D12B68002B8A
:10524000C5D01D2B01D0162B01D12F60B1E7A3894A
:1052500043F04003A381ADE70F69002FA9D0930766
:105260000E6808BF4B690F6018BF0023A6EB070844
:105270008B60B8F1000F9CDD43463A46216AA66A6E
:105280002846B047002806DCA38943F04003A381E9
:105290004FF0FF308EE70744A8EB0008E9E700BFB6
:1052A0000100402038B50B6905460C46DBB118B14A
:1052B00083690BB9FFF78EFA0C4B9C4209D16C68DD
:1052C000B4F90C307BB121462846BDE83840FFF7E1
:1052D00063BF074B9C4201D1AC68F1E7054B9C4290
:1052E00008BFEC68ECE7002038BD00BFE4670008A9
:1052F00004680008C467000838B5074C054608462E
:105300001146002222601A4600F008F9431C02D11F
:10531000236803B12B6038BD7433002470B50E468A
:10532000B1F90E10002996B014461D4607DA002385
:105330002B60B3891A0610D44FF480630EE06A46DE
:1053400000F0B2F80028F2DB019A02F47042A2F5F4
:1053500000535A425A412A60EEE74023002023605E
:1053600016B070BD8B8973B59D0706460C4607D5F0
:1053700004F14703236023610123636102B070BD20
:1053800001AB6A46FFF7CAFF009905463046FFF7B2
:10539000ABFA48B9B4F90C309A05EFD423F0030303
:1053A00043F00203A381E3E70D4BB362A3892060BE
:1053B00043F08003A381009B6361019B20615BB18B
:1053C000B4F90E10304600F081F828B1A38923F01B
:1053D000030343F00103A381A3891D43A581CDE706
:1053E0009D4700087047704738B50546002945D0ED
:1053F00051F8043C0C1F002BB8BFE418FFF7F2FF74
:105400001F4A1368104633B9636014602846BDE82C
:105410003840FFF7E8BFA3420CD9216862189342D5
:1054200004BF1A685B68636004BF5218226004609E
:10543000ECE713465A680AB1A242FAD9196858181B
:10544000A0420BD120680144581882421960DDD176
:10545000106852685A6001441960D7E702D90C23DA
:105460002B60D3E7206821188A4204BF1168526874
:10547000626004BF091821605C60C7E738BD00BFE7
:10548000D801002438B5074C0546084611460022CD
:1054900022601A4600F04AF8431C02D1236803B187
:1054A0002B6038BD7433002438B5074C0023054603
:1054B00008461146236000F021F8431C02D12368FE
:1054C00003B12B6038BD00BF7433002438B5064CDF
:1054D000002305460846236000F018F8431C02D15B
:1054E000236803B12B6038BD74330024024B58226B
:1054F0001A604FF0FF30704774330024024B58227B
:105500001A604FF0FF30704774330024024B58226A
:105510001A600020704700BF74330024024B5822E9
:105520001A604FF0FF30704774330024024B58224A
:105530001A604FF0FF30704774330024044A054965
:105540001368002B08BF0B461844106018467047BC
:10555000E001002478330024024B58221A604FF0F7
:10556000FF30704774330024F8B500BFF8BC08BCA6
:105570009E467047F8B500BFF8BC08BC9E46704711
:105580002000040063310024CC000024200005002A
:10559000C0300024C800002418000F00522E002440
:1055A000C400002410000200E6310024C0000024E2
:1055B00010001000BD2F0024BC0000246002100069
:1055C0004F080024B8000024805500088C550008BE
:1055D00098550008A4550008B0550008BC550008AF
:1055E000E80300002D390008E8030000CD2E000874
:1055F000FFFFFFFF00000000FFFFFFFFFFFF0000B5
:10560000000000006D79206E616D6520697320785F
:1056100078787878787800000000000000000000BA
:10562000000000000000000000000000000000007A
:10563000000000000000000000000000000000006A
:10564000000000000000000000000000000000005A
:10565000000000000000000000000000000000004A
:105AB00000000000000000000102030401020304D2
:105AC000060708092E2E2F4D6964646C6577617294
:105AD00065732F54686972645F50617274792F4CDA
:105AE0007749502F7372632F636F72652F6D656DE9
:105AF0002E63006D656D5F667265653A2073616E39
:105B000069747920636865636B20616C69676E6D89
:105B1000656E7400417373657274696F6E2022251F
:105B20007322206661696C6564206174206C696E03
:105B30006520256420696E2025730A006D656D5F00
:105B4000667265653A206C6567616C206D656D6F86
:105B50007279006D656D5F667265653A206D656D81
:105B60002D3E7573656400706C75675F686F6C655A
:105B7000733A206D656D203E3D2072616D00706C42
:105B800075675F686F6C65733A206D656D203C20AA
:105B900072616D5F656E6400706C75675F686F6CD5
:105BA00065733A206D656D2D3E75736564203D3DCE
:105BB000203000706C75675F686F6C65733A206D9C
:105BC000656D2D3E6E657874203C3D204D454D5FE2
:105BD00053495A455F414C49474E4544006D656DF8
:105BE0005F7472696D3A206C6567616C206D656DDC
:105BF0006F7279006D656D5F7472696D2063616E9F
:105C0000206F6E6C7920736872696E6B206D656DA4
:105C10006F7279006D656D5F6D616C6C6F633A20BA
:105C2000216C667265652D3E75736564006D656DEA
:105C30005F6D616C6C6F633A20616C6C6F63617453
:105C40006564206D656D6F7279206E6F742061627E
:105C50006F76652072616D5F656E642E006D656D97
:105C60005F6D616C6C6F633A20616C6C6F63617423
:105C70006564206D656D6F72792070726F706572EA
:105C80006C7920616C69676E65642E006D656D5F6F
:105C90006D616C6C6F633A2073616E697479206317
:105CA0006865636B20616C69676E6D656E74002E4C
:105CB0002E2F4D6964646C6577617265732F54682B
:105CC0006972645F50617274792F4C7749502F73F9
:105CD00072632F636F72652F6D656D702E63006D3B
:105CE000656D705F6D616C6C6F633A206D656D7092
:105CF0002070726F7065726C7920616C69676E6577
:105D000064006D656D705F667265653A206D656DE6
:105D10002070726F7065726C7920616C69676E6556
:105D20006400696E76616C696420706F6F6C2064CA
:105D3000657363006D656D705F6D616C6C6F633A68
:105D40002074797065203C204D454D505F4D415881
:105D5000006D656D705F667265653A207479706577
:105D6000203C204D454D505F4D4158002E2E2F4D6B
:105D70006964646C6577617265732F5468697264D5
:105D80005F50617274792F4C7749502F7372632F73
:105D9000636F72652F6E657469662E63004E6F20A7
:105DA000696E69742066756E6374696F6E206769C9
:105DB00076656E002E2E2F4D6964646C6577617276
:105DC00065732F54686972645F50617274792F4CE7
:105DD0007749502F7372632F636F72652F706275EE
:105DE000662E6300696E6372656D656E745F6D61CA
:105DF000676E6974756465203C3D20702D3E6C654E
:105E00006E0062616420706275662074797065004E
:105E1000706275665F616C6C6F6365645F637573F8
:105E2000746F6D3A206261642070627566206C61E7
:105E300079657200706275665F667265653A207397
:105E4000616E65207479706500706275665F667258
:105E500065653A20702D3E726566203E20300070E8
:105E6000632D3E637573746F6D5F667265655F6603
:105E7000756E6374696F6E20213D204E554C4C0049
:105E8000706275665F616C6C6F633A20626164205A
:105E900070627566206C6179657200636865636B1A
:105EA00020702D3E7061796C6F6164202B20702D05
:105EB0003E6C656E20646F6573206E6F74206F7624
:105EC0006572666C6F7720706275660072656D5FD3
:105ED0006C656E203C206D61785F7531365F7400B3
:105EE000706275665F616C6C6F633A207062756694
:105EF00020712D3E7061796C6F61642070726F70DB
:105F000065726C7920616C69676E6564007062759A
:105F1000665F616C6C6F633A206572726F6E656F5D
:105F20007573207479706500706275665F72656163
